:020000040800F2
:1000000040050020AD1B0008BD020008BF0200082B
:10001000C3020008C7020008CB020008000000006D
:10002000000000000000000000000000CF020008F7
:10003000D102000800000000D3020008D502000829
:10004000C71B0008C71B0008C71B0008C71B000808
:10005000C71B0008C71B0008C71B0008C71B0008F8
:10006000C71B0008C71B0008C71B0008C71B0008E8
:10007000C71B0008C71B0008C71B0008C71B0008D8
:10008000C71B0008C71B0008C71B0008C71B0008C8
:10009000C71B0008C71B0008C71B0008C71B0008B8
:1000A000C71B0008C71B0008C71B0008C71B0008A8
:1000B000C71B0008C71B0008C71B0008C71B000898
:1000C000C71B0008C71B0008C71B0008C71B000888
:1000D000C71B0008C71B00088B1A0008C71B0008B5
:1000E000C71B0008C71B0008C71B0008C71B000868
:1000F000C71B0008C71B0008C71B0008C71B000858
:10010000C71B0008C71B0008E5110008C71B000833
:10011000C71B0008C71B0008C71B0008C71B000837
:10012000C71B0008C71B0008C71B0008C71B000827
:10013000DFF810D007F0B8F900480047490100087F
:10014000AFF300804005002008B54FF4A06002F036
:10015000C3FA4FF4165001F04BFC01F0D1FB00F054
:10016000ABF901F0FDF9002141F61F4000F02CFA37
:1001700001F03EF901F089F900F0F0F900F0B5F96D
:1001800000F072FF01F05EF800F061FB03F0A9FAE5
:100190000DE010233BA20221084600F032FCC820EB
:1001A00001F0EBFB00F053FBC82001F0E6FB05F08B
:1001B000C7FC0028EDD141F61F41632000F0E6FFA7
:1001C0005FE00C2333A20121022000F01AFC324927
:1001D000486906F0B4FF04460C200323224601219F
:1001E0000090322000F0C9FB0C232CA2022108460B
:1001F00000F007FC2849C86906F0A1FF04460C205E
:100200000323224602210090322000F0B6FB0C238B
:1002100023A20321022000F0F4FB1F49886906F0A5
:10022000DAFF0446012022460B46032100903220CB
:1002300000F002FC0C231BA20421022000F0E1FBD1
:100240001948B0F900200421322000F07EFE0C2372
:1002500016A20621022000F0D4FB1648006806F022
:10026000BAFF0446012022460B46062100903220A8
:1002700000F0E2FB104890F900200721322000F046
:10028000ADFD9EE74D505536303530206572726FAA
:10029000723A00006B703A00F00000206B643A0084
:1002A0006B693A0073703A000E0000207961773A6A
:1002B000000000001C00002004000020704700BF68
:1002C000FEE700BFFEE700BFFEE700BFFEE77047A6
:1002D00070477047704700000CB5002001900090F7
:1002E0006C48006840F480306A49086000BF694883
:1002F000006800F4003000900198401C01900098C4
:1003000018B90198B0F5A06FF1D16248006800F407
:10031000003010B10120009001E000200090009812
:10032000012843D15C48006840F010005A49086039
:100330000846006820F0030008600846006840F0A6
:1003400002000860534840685249486008464068C7
:1003500048600846406840F480604860084640684D
:1003600020F47C1048600846406840F4E81048607B
:100370000846006840F08070086000BF454800688B
:1003800000F000700028F9D04248406820F00300D7
:10039000404948600846406840F00200486000BF9D
:1003A0003C48406800F00C000828F9D10CBD10B59D
:1003B000FFF792FF10BD10B53648006840F001000D
:1003C000344908600846406834490840314948606B
:1003D00008460068324908402E490860084600680F
:1003E00020F4802008600846406820F4FE00486041
:1003F0004FF41F008860FFF7DAFF4FF000602949D3
:10040000086010BD10B5002100200022214B5B6860
:1004100003F00C0121B1042906D0082928D107E0F6
:10042000214B224C236027E01F4B204C236023E00C
:10043000184B5B6803F47010164B5B6803F4803252
:10044000022303EB904022B9194B4343174C23601E
:100450000DE0104B5B6803F4003323B1144B4343AE
:10046000124C236003E0104B4343104C236003E025
:100470000D4B0E4C236000BF00BF064B5B68C3F3FF
:1004800003130C4CE15C094B1B68CB40074C236009
:1004900010BD000000100240002002400000FFF8E4
:1004A000FFFFF6FE08ED00E000127A0038000020A1
:1004B00000093D003C00002008B50121102001F09A
:1004C000A3FE4FF4C040ADF8000010208DF80300EB
:1004D00003208DF8020069461C4801F0D9FB4FF457
:1004E00000511A4801F081FC08BD08B501213C20EB
:1004F00001F08AFE4FF40040ADF8000048208DF86E
:1005000003006946124801F0C3FB4FF48060ADF868
:10051000000048208DF8030069460C4801F0B8FB44
:100520000420ADF8000048208DF803006946094812
:1005300001F0AEFB1820ADF8000048208DF8030054
:100540006946054801F0A4FB08BD00000010014009
:100550000008014000140140000C014008B50121D1
:10056000082001F051FE10208DF803004FF4704078
:10057000ADF8000003208DF8020069460F4801F035
:1005800087FB08BD01200E49086000200D49C1F815
:10059000B0010B49091D086001200A49C1F8BC01DE
:1005A00070470020064908600649C1F8B0010449B7
:1005B000091D08600349C1F8BC017047000C0140E7
:1005C000B48121420080214230B589B004460D46F5
:1005D0000121C80201F018FE0121042001F014FEDF
:1005E0004FF41060ADF8200018208DF82300032090
:1005F0008DF8220008A9244801F04AFBADF8184004
:10060000ADF814500020ADF81A00ADF8160005A999
:100610001E4802F0A3F96020ADF804000120ADF8F7
:1006200006000020ADF80A006010ADF80A000020B6
:10063000ADF80C0001A9154802F0CDF901A9134845
:1006400002F0A3FA0121114802F0F0FC08210F4842
:1006500002F010FE08210D4802F02BFE01210B488C
:1006600002F0D8FD0121094802F0D4FC09B030BDE8
:1006700070B504460D462146044802F063FF294642
:10068000024802F065FF70BD00080140002C0140E7
:1006900010B54FF48061F94801F0A7FB4FF40061F9
:1006A000F64801F0A2FB4FF40061F44801F09FFB13
:1006B0004FF48061F14801F09AFB10BD10B54FF482
:1006C0008061EE4801F091FB4FF40061EB4801F0CE
:1006D0008EFB4FF40061E94801F087FB10BD10B5B7
:1006E0004FF48061E54801F080FB4FF48061E348FE
:1006F00001F07DFB10BD2DE9F04105462C464FF47D
:100700008061DE4801F073FB00261CE0274607F0FD
:100710008007802F04D13901D84801F066FB04E03E
:100720004FF40061D54801F062FB6006040E4FF4FF
:100730008061D24801F059FB4FF48061CF4801F04D
:1007400056FB701CC6B2082EE0DBBDE8F08110B588
:100750000446FFF79DFF7820FFF7CDFFFFF7BFFFAF
:100760000020FFF7C8FFFFF7BAFF2046FFF7C3FFDF
:10077000FFF7B5FFFFF7A2FF10BD10B50446FFF766
:1007800087FF7820FFF7B7FFFFF7A9FF4020FFF7AB
:10079000B2FFFFF7A4FF2046FFF7ADFFFFF79FFF73
:1007A000FFF78CFF10BD70B504460D461DB1E0B2D9
:1007B000FFF7E3FF02E0E0B2FFF7C9FF70BD06E01C
:1007C00041F6650100E0491E0029FCD1401E0028C9
:1007D000F6D17047014605E0002001E0421CD0B28E
:1007E0007B28FBDB0A1EA1F10101F5D1704770B532
:1007F00004460D4605F1B0000021FFF7D4FF10219B
:1008000041EA14100021FFF7CEFF04F00F00002191
:10081000FFF7C9FF70BD10B500218D20FFF7C3FFA2
:1008200000211420FFF7BFFF0021AF20FFF7BBFF1F
:1008300010BD10B500218D20FFF7B5FF002110205D
:10084000FFF7B1FF0021AE20FFF7ADFF10BD70B57F
:10085000002418E004F1B0000021FFF7A4FF0021FC
:100860000846FFF7A0FF00211020FFF79CFF00259E
:1008700005E001210020FFF796FF681CC5B2802D1E
:10088000F7DB601CC4B2082CE4DB70BD70B500243B
:1008900018E004F1B0000021FFF785FF00210846B1
:1008A000FFF781FF00211020FFF77DFF002505E005
:1008B00001210846FFF777FF681CC5B2802DF7DBE2
:1008C000601CC4B2082CE4DB70BD2DE9F04707467C
:1008D0000E469046994600250024A8F12000C5B296
:1008E0007F2F02DD0027B01CC6B2B9F1100F24D152
:1008F00031463846FFF77BFF002408E004EB051182
:100900005F4A505C0121FFF74EFF601CC4B2082C07
:10091000F4DB701CC1B23846FFF769FF002409E020
:1009200004EB05110831564A505C0121FFF73BFFEB
:10093000601CC4B2082CF3DB12E031463846FFF7E6
:1009400056FF00240AE005EB45014E4A02EB410147
:10095000085D0121FFF727FF601CC4B2062CF2DB03
:10096000BDE8F08710B50246012000E050430B1EA1
:10097000A1F10104E1B2F9D110BD2DE9FF5F0746F5
:1009800091461E460E9D4FF0000A002435E0301BB4
:10099000401EC1B20A20FFF7E5FFB9FBF0F00A21C3
:1009A000B0FBF1F201FB1208BAF1000F14D1701E76
:1009B000A04211DDB8F1000F0CD1AB4605EBDB71A5
:1009C000491001FB0471C8B22B4620220199FFF7A0
:1009D0007CFF10E04FF0010AAB4605EBDB714910DC
:1009E00001FB0471C8B208F13001CAB22B4601996B
:1009F000FFF76BFF00BF601CC4B2B442C7DBBDE8A9
:100A0000FF9F2DE9F04105460E4614461F460EE0B5
:100A100022783B4631462846FFF757FF05F108008C
:100A2000C5B2782D02DD0025B01CC6B2641C20784A
:100A30000028EDD1BDE8F0812DE9FF5F86B01446B6
:100A40001D464FF0010A00200390049005904FF0DE
:100A50000109002600BF834600221346204629468E
:100A600006F0CCFB10D285F00040CDE900402046D6
:100A7000019906F078FB06460BE00000000C0140EF
:100A8000AC830008848100082046294606F06BFBF1
:100A90000646304606F01CFB22462B46CDE90001F7
:100AA00006F024FA074688460022FE4B38464146A7
:100AB00006F01FFACDE9000106F074FB834607E05B
:100AC00009EB89004FEA40090AF1010000F0FF0A32
:100AD0000A2096FBF0F090FBF9F00028F0D142F2EA
:100AE000107096FBF0F00A2190FBF1F201FB12006E
:100AF000C0B28DF80C004FF47A7096FBF0F090FBCA
:100B0000F1F201FB1200C0B28DF80D00642096FBDB
:100B1000F0F090FBF1F201FB1200C0B28DF80E0074
:100B20000A2096FBF0F090FBF1F201FB1200C0B23C
:100B30008DF80F000A2096FBF0F100FB1160C0B2A7
:100B40008DF810002E208DF811004FF47A70BBFB49
:100B5000F0F00A21B0FBF1F201FB12008DF8120057
:100B60006420BBFBF0F0B0FBF1F201FB12008DF84A
:100B700013000A20BBFBF0F0B0FBF1F201FB120006
:100B80008DF814000A20BBFBF0F100FB11B08DF8CA
:100B9000150000211498801D03AA1154894608E00D
:100BA00003A810F80900303003A901F8090009F181
:100BB0000109B9F10A0FF3DB00221346204629464A
:100BC00006F01CFB08D20AF1010000F0FF0A2D20FC
:100BD000CAF1050103AA50542E208DF811000021FE
:100BE0001498801D03AA1154CAF1050003A94218E4
:100BF0000C23DDE90601FFF704FF0AB0BDE8F09F12
:100C00002DE9F04F89B08246894617469846DDF8AF
:100C10004CB001200790002004900590069001241C
:100C2000002500BF00264FEAC9604FEA1069384628
:100C3000414606F098FA0546284606F05AFA3A4622
:100C40004346CDE9000106F051F9CDE90201002249
:100C5000944BDDE9020106F04CF9CDE9000106F004
:100C6000A1FA064606E004EB840044000798401C05
:100C7000C0B207900A20B5FBF0F0B0FBF4F00028FA
:100C8000F1D142F21070B5FBF0F00A21B0FBF1F2A5
:100C900001FB12008DF810004FF47A70B5FBF0F0F4
:100CA000B0FBF1F201FB12008DF811006420B5FBDE
:100CB000F0F0B0FBF1F201FB12008DF812000A20F7
:100CC000B5FBF0F0B0FBF1F201FB12008DF8130060
:100CD0002E208DF815004FF47A70B6FBF0F0B0FBC3
:100CE000F1F201FB12008DF816006420B6FBF0F063
:100CF000B0FBF1F201FB12008DF817000A20B6FBE1
:100D0000F0F0B0FBF1F201FB12008DF818000A20A0
:100D1000B6FBF0F100FB11608DF8190000210BF11A
:100D2000060004AA1154002405E004A8005D303038
:100D300004A90855641C0A2CF7DB2E208DF8150039
:100D400000210BF1060004AA11541298C0F105000D
:100D500004A942180C2351464846FFF752FE09B039
:100D6000BDE8F08F2DE9F04105460F46164600BF5D
:100D700005EB45014906080E3946FFF738FD00240A
:100D80000BE006F1100101EB4101474A02EB410182
:100D9000085D0121FFF707FD641C062CF1DBBDE8AF
:100DA000F0812DE9F04105460F46164600BF05EBE0
:100DB00045014906080E3946FFF719FD002409E0F0
:100DC00006EB4601384A02EB4101085D0121FFF7BD
:100DD000EAFC641C062CF3DBBDE8F0812DE9F0474A
:100DE0000546894616463446002C22DA64426420C1
:100DF00094FBF0F100FB11400A2190FBF1F0C7B227
:100E00000A2094FBF0F100FB114000F0FF080D22D6
:100E100049462846FFF7C5FF691CC8B23A4649460D
:100E2000FFF7A0FFA91CC8B242464946FFF79AFF48
:100E300020E0642094FBF0F100FB11400A2190FBBC
:100E4000F1F0C7B20A2094FBF0F100FB114000F072
:100E5000FF080B2249462846FFF7A3FF691CC8B2CA
:100E60003A464946FFF77EFFA91CC8B242464946AA
:100E7000FFF778FFBDE8F0872DE9F04705468A4681
:100E800016463446002C32DA64420D22514628467A
:100E9000FFF787FF0A2094FBF0F100FB1140C7B277
:100EA0000A2003E00088C3408481000894FBF0F02E
:100EB0000A2190FBF1F201FB120000F0FF08642010
:100EC00094FBF0F000F0FF09E91CC8B23A46514625
:100ED000FFF748FFA91CC8B242465146FFF742FF40
:100EE000691CC8B24A465146FFF73CFF2BE00B2273
:100EF00051462846FFF755FF0A2094FBF0F100FB0E
:100F00001140C7B20A2094FBF0F00A2190FBF1F2E5
:100F100001FB120000F0FF08642094FBF0F000F0E9
:100F2000FF09E91CC8B23A465146FFF71BFFA91C4E
:100F3000C8B242465146FFF715FF691CC8B24A467F
:100F40005146FFF70FFFBDE8F0872DE9F05F05463A
:100F50008B4616463446002C00DA64424FF47A7011
:100F600094FBF0F0C7B24FF47A7094FBF0F100FB01
:100F70001140642190FBF1F000F0FF08642094FB25
:100F8000F0F100FB11400A2190FBF1F000F0FF09A5
:100F90000A2094FBF0F100FB114000F0FF0A3A46F2
:100FA00059462846FFF7DEFE691CC8B2424659463C
:100FB000FFF7D8FEA91CC8B24A465946FFF7D2FE31
:100FC000E91CC8B252465946FFF7CCFEBDE8F09F77
:100FD0002DE9F05F05460E46144642F21070B4FB50
:100FE000F0F0C7B242F21070B4FBF0F100FB114018
:100FF0004FF47A71B0FBF1F000F0FF080846B4FB43
:10100000F0F100FB11406421B0FBF1F000F0FF09AA
:101010006420B4FBF0F100FB11400A21B0FBF1FAAF
:101020000A20B4FBF0F100FB114B3A46314628464A
:10103000FFF798FE691CC8B242463146FFF792FEA0
:10104000A91CC8B24A463146FFF78CFEE91CC8B25B
:1010500052463146FFF786FE291DC8B25A46314630
:10106000FFF780FEBDE8F09F08B50121092001F0DF
:10107000CBF80121434800F0DCFE4FF44060ADF8AE
:10108000000010208DF8030003208DF8020069464F
:101090003D4800F0FDFD4FF440613B4800F0A5FEE7
:1010A0004FF4487000F069FC0021AE20FFF77BFB95
:1010B00000210846FFF777FB00211020FFF773FBA4
:1010C00000214020FFF76FFB0021B020FFF76BFBF2
:1010D00000218120FFF767FB0021FF20FFF763FB62
:1010E0000021A120FFF75FFB0021A620FFF75BFB9B
:1010F0000021A820FFF757FB00213F20FFF753FBFB
:101100000021C820FFF74FFB0021D320FFF74BFB46
:1011100000210846FFF747FB0021D520FFF743FBDE
:1011200000218020FFF73FFB0021D820FFF73BFB89
:1011300000210520FFF737FB0021D920FFF733FB03
:101140000021F120FFF72FFB0021DA20FFF72BFB16
:1011500000211220FFF727FB0021DB20FFF723FBF4
:1011600000213020FFF71FFB00218D20FFF71BFB24
:1011700000211420FFF717FB0021AF20FFF713FB1E
:1011800008BD000000023000000C01407FB505469C
:101190000C460121082001F044F8ADF80850ADF8E4
:1011A00004400020ADF80A00ADF8060001A920486F
:1011B00001F0D4FB012211461D4801F046FF322008
:1011C0008DF8000000208DF8010001208DF802004C
:1011D0008DF80300684601F084FA0121144801F0FB
:1011E00019FF7FBD2DE9F0410121114802F0DBF923
:1011F000D8B1104A1049114804F0ECFC0D480068C1
:1012000005F0E9FF06464FF066320D4B05F0CAFDCA
:10121000044606F00BF80749086000F0E1F900F019
:1012200059FA0121024802F0CFF9BDE8F08100002F
:10123000000C00401C0000201800002014000020BA
:101240006666204000206049486008608860C86089
:1012500008615E484861002088615C48C8610020E0
:101260005B49486008608860C86008615948486107
:1012700000208861C861704770B504460D466560FE
:10128000D4E9000105F018FDA060A168606905F0CF
:1012900019FD6060606870BD2DE9F04104460D469F
:1012A0006560D4E9000105F007FDA060A168206930
:1012B00005F0B0FC20612169A06905F003FD064638
:1012C000A168606905F0FEFC0746314605F0A2FC06
:1012D00060606068BDE8F0812DE9F04704460D4686
:1012E0006560D4E9000105F0E7FCA060A168206911
:1012F00005F090FC2061D4E9020105F0DDFC804698
:10130000E16905F0DFFC06462169A06905F0DAFC19
:101310008046A168606905F0D5FC8146414605F02C
:1013200079FC0746314605F075FC6060A068E06016
:101330006068BDE8F0872DE9F04704460D46601B64
:1013400005F0B8FE24490860084601682348006893
:1013500005F060FC21490860214801681E480068CA
:1013600005F0AAFC80461848C169404605F0AAFC71
:101370000646174988691949096805F0A3FC8046A3
:10138000134948691449096805F09CFC81464146A7
:1013900005F040FC0746314605F03CFC1149086069
:1013A0000D4800680E4908600E48006805F0AEFE62
:1013B000BDE8F08710B502460B4B1B6853430B4C3E
:1013C000246804FB013010BDF000002000009643AB
:1013D000100100200000484260000020680000204A
:1013E0006C00002064000020580000205C000020F9
:1013F00000B587B00121084600F013FF0121042049
:1014000000F002FF0320ADF8000004208DF8030077
:101410006946514800F03CFC04A801F0CBFD0020D7
:10142000ADF810004FF6FF70ADF814000020ADF8D5
:101430001600ADF8120004A94FF0804001F08EFABA
:1014400000231A4603214FF0804001F096FE01A8C8
:1014500001F0C3FD0A20ADF80C0001A9400701F01E
:1014600010FD0121880702F09BF801221146900728
:1014700001F0EBFD00214FF0804002F05FF8012108
:10148000880701F0C7FD07B000BD00B587B0012196
:10149000022000F0C6FE0121042000F0B5FEC020AD
:1014A000ADF8000004208DF8030069462A4800F0DA
:1014B000EFFB04A801F07EFD0020ADF810004FF610
:1014C000FF70ADF814000020ADF81600ADF8120062
:1014D00004A9224801F042FA00231A4603211F48BA
:1014E00001F04BFE01A801F078FD0A20ADF80C00D8
:1014F00001A91A4801F0C5FC0121184802F050F872
:1015000001221146154801F0A0FD0021134802F008
:1015100015F80121114801F07DFD07B000BD01461D
:10152000022902D0032912D108E04FF08042928CA8
:1015300010B200224FF080439A840AE0074A243216
:10154000128810B20022054B24331A8001E00020DB
:1015500000BF00BF704700000008014000040040C9
:1015600008B50121102000F04FFE48208DF803003F
:101570003020ADF8000003208DF8020069461748BE
:1015800000F086FB08BD10B500241021134800F0C0
:1015900012FC68B9142000F0F0F900BF10210F48C8
:1015A00000F009FC0028F9D0142000F0E6F901242D
:1015B00020210A4800F0FFFB68B9142000F0DDF993
:1015C00000BF2021054800F0F6FB0028F9D01420C8
:1015D00000F0D3F90224204610BD000000100140A5
:1015E000AD480068AD490860AB48001F006848601E
:1015F000AB4800688860AB480068C860AA480068CB
:1016000008610846006880B90846406868B908461D
:101610008068012809D10846C06830B908460069C9
:1016200018B90020A149087053E09C48006880B9AF
:101630009A48406801280CD19848806848B9974872
:10164000C06830B99548006918B9012097490870F9
:101650003FE092480068012811D19048406870B975
:101660008E48806858B98D48C06840B98B48006979
:1016700028B902208D4908708D49086029E0874803
:10168000006880B98548406868B98448806850B966
:101690008248C068012806D18048006918B9FF2037
:1016A0008249087015E07D48006890B97B48406821
:1016B00078B97A48806860B97848C06848B977488E
:1016C0000069012805D1FE20784908700320784977
:1016D0000860704770B5754890F9000005F0EAFCA5
:1016E000054629467348FFF7F7FD044605F00EFD51
:1016F00000B271490880714800880988084400B226
:101700006F4908806D4800886B490988401A00B20B
:101710006C4908806A48B0F9000041F2883188427B
:1017200002DD0846664908806548B0F900000028D7
:1017300002DA0020624908806248B0F9000041F2F4
:101740008831884202DD08465D4908805D48B0F96D
:101750000000002802DA002059490880534890F917
:101760000000594991F9001088420BD05448008874
:1017700081B2564801F0E6FE5248008881B25348D3
:1017800001F0E6FE494890F900004F49087070BD2D
:1017900010B54F4801684F48FFF79EFD4E4908605D
:1017A000084601684D4805F035FA4D4908604A4839
:1017B00001684A4805F080FA4A4908604A494848A1
:1017C000006805F059FD02D24748454908600021EC
:1017D0004348006805F046FD02D2002040490860F9
:1017E00041494048006805F047FD02D23E483D4966
:1017F000086000213B48006805F034FD02D200205B
:10180000384908603748006805F099FC84B22146E1
:101810002E4801F097FE3248006805F090FC84B233
:1018200021462A4801F094FE10BD2DE9FC5F0446D4
:101830000D462E4E2E4F601B2E490860084600684C
:1018400005F038FC3946009005F03CFA82462949FB
:101850000968294A1268881A05F02CFC3146009064
:1018600005F030FA8346514605F0D4F98146234805
:10187000006805F01FFC4946019005F0CBF9804651
:1018800005F044FC1D4908601A4800681A490860C0
:101890001A480068BDE8FC9F10812142DC0000204E
:1018A00008812242280122423C01214204000020FA
:1018B00010000020F00000200A0000200E00002090
:1018C000060000200800002070000020002C0140CD
:1018D0001C000020100100204C0000200000FA44F1
:1018E000500000205400002000803B450000A04133
:1018F0000000F041740000207C00002078000020EF
:1019000010B56FF0040000F036FF2E4800682E4935
:10191000B0FBF1F02D4908700846007800EB40015B
:10192000C1EBC0104FF6FF7101EAC00028490880E2
:1019300010BD0146254A12784A434FF0E0235A6110
:1019400000229A611A46126942F001021A6100BF30
:101950004FF0E022106900F001021AB100F4803269
:10196000002AF5D04FF0E022126922F001024FF078
:10197000E0231A6100229A6170470146144A1288D6
:101980004A434FF0E0235A6100229A611A461269D5
:1019900042F001021A6100BF4FF0E022106900F02E
:1019A00001021AB100F48032002AF5D04FF0E02293
:1019B000126922F001024FF0E0231A6100229A61BD
:1019C000704700003800002000127A0080000020DC
:1019D0008200002000BF704700BF6B4A128802F0EF
:1019E0004002002AF9D0C2B2674B1B1D1A80704713
:1019F00010B586B004460121042000F005FC012149
:101A0000480400F00EFC0420ADF8140003208DF80B
:101A1000160018208DF8170005A95C4800F038F969
:101A20000820ADF8140004208DF8170005A95748C8
:101A300000F02EF926208DF8000003208DF801001B
:101A40008DF8020001208DF80300684600F049FE81
:101A500001940020ADF80800ADF80A00ADF80C00C4
:101A6000ADF810000C20ADF80E0001A9484800F0B8
:101A700072FC012240F22551454800F004FD01218D
:101A8000434800F0F4FC06B010BD2DE9F0410024FD
:101A900040F225513E4800F0DBFD00286DD03C4867
:101AA00000F056FD0446322C06D13A4948693A49BD
:101AB00005F002F937494861312C06D135494869AA
:101AC000354905F0A7F833494861332C06D131492F
:101AD000C869314905F09EF82E49C861342C06D1F9
:101AE0002C49C8692C4905F0E7F82A49C861352C0A
:101AF00005D12A480088643800B228490880362C6D
:101B000005D126480088643000B224490880372C6B
:101B100001D1FEF737FD382C01D1FEF742FD392CFB
:101B20000DD11C49886905F056FB07461C4A1D4B20
:101B300005F038F9054605F079FB16498861612CF6
:101B40000DD11449886905F046FB0746144A154B28
:101B500005F0C9F9054605F069FB0E498861622C5C
:101B600004D1114800680A300F490860632C04D181
:101B70000D4800680A380C49086040F225510448B5
:101B800000F090FDBDE8F081003801400008014000
:101B900000440040F0000020000020410E00002022
:101BA0009A9999999999B93F300000200648804741
:101BB00006480047FEE7FEE7FEE7FEE7FEE7FEE732
:101BC000FEE7FEE7FEE7FEE7B70300083101000885
:101BD00010B50446CC48844208D10121042000F00D
:101BE0002DFB0021042000F029FB46E0C748844279
:101BF00008D10121082000F021FB0021082000F07D
:101C00001DFB3AE0C248844208D10121102000F0B7
:101C100015FB0021102000F011FB2EE0BD4884428E
:101C200008D10121202000F009FB0021202000F034
:101C300005FB22E0B848844208D10121402000F091
:101C4000FDFA0021402000F0F9FA16E0B348844282
:101C500008D10121802000F0F1FA0021802000F05D
:101C6000EDFA0AE0AE48844207D10121801500F068
:101C7000E5FA0021A01500F0E1FA10BD10B5012130
:101C8000084600F0DBFA0021012000F0D7FA10BD71
:101C90002DE9F04102460025002600200023002403
:101CA000002791F803C00CF00F0591F803C00CF069
:101CB000100CBCF1000F03D091F802C04CEA0505EE
:101CC00091F800C0BCF1000F31D0146800202BE067
:101CD0004FF0010C0CFA00F3B1F800C00CEA030657
:101CE0009E4220D183004FF00F0C0CFA03F7BC4347
:101CF00005FA03FC4CEA040491F803C0BCF1280F78
:101D000006D14FF0010C0CFA00FCC2F814C00AE036
:101D100091F803C0BCF1480F05D14FF0010C0CFA4B
:101D200000FCC2F810C0401C0828D1D31460B1F8E0
:101D300000C0BCF1FF0F34DD546800202EE000F13C
:101D4000080C4FF0010808FA0CF3B1F800C00CEAD7
:101D500003069E4221D183004FF00F0C0CFA03F7CB
:101D6000BC4305FA03FC4CEA040491F803C0BCF13F
:101D7000280F05D100F1080C08FA0CF8C2F81480FD
:101D800091F803C0BCF1480F07D100F1080C4FF0E7
:101D9000010808FA0CF8C2F81080401C0828CED3BD
:101DA0005460BDE8F0814FF6FF710180022181701F
:101DB0000421C17070470246002093680B400BB1AC
:101DC000012000E0002070470146886880B270471B
:101DD00002460020D3680B400BB1012000E0002038
:101DE00070470146C86880B2704701617047416121
:101DF00070470AB1016100E041617047C1607047FE
:101E00004FF480320A438261816182618269826912
:101E1000704702460020434B18684FF68073184005
:101E200040EA021008433F4B186070473E49C861C2
:101E30007047F0B50A46002300240021002500F079
:101E40000046B6F1004F02D1364EF16901E0354E41
:101E50007168C0F3034583B200F44016B6F5401F25
:101E600008D121F070612F4E766826F070662D4FF4
:101E70007E6012E000F48016B6F5801F06D10326BE
:101E800006FA05F4A14341F0706106E0460D360103
:101E900003FA06F6B14341F0706122B1460D3601F6
:101EA00003FA06F6314300F00046B6F1004F02D1C6
:101EB0001C4EF16101E01B4E7160F0BD30B5002297
:101EC0008B071C0F0F2303FA04F2164B08338C10F8
:101ED00053F824309343134C08348D1044F82530C4
:101EE00023468C1053F824308C07240F00FA04F496
:101EF00023430C4C08348D1044F8253030BD0A497A
:101F0000DC3108607047000000080140000C01400F
:101F1000001001400014014000180140001C014065
:101F2000002001400000014000002042DF4800681E
:101F300040F00100DD49086008464068DC4908407F
:101F4000DA49486008460068DA490840D74908601D
:101F50000846006820F4802008600846406820F4A5
:101F6000FE0048604FF41F0088607047CF49096841
:101F700021F48031CD4A11601146096821F4802195
:101F80001160B0F5803F03D0B0F5802F0ED106E090
:101F9000C649096841F48031C44A116007E0C34969
:101FA000096841F4A021C14A116000E000BF00BFF0
:101FB000704710B501460022002300204A11012A73
:101FC00002D1BA4C236806E0022A02D1B74C236A38
:101FD00001E0B64C636A01F01F02012494401C40EA
:101FE0000CB1012000E0002010BD38B500200090A9
:101FF0000024002500BF3120FFF7DBFF05460098D5
:10200000401C00900098B0F5A06F01D0002DF2D0D8
:102010003120FFF7CEFF08B1012400E00024204664
:1020200038BD01460020A14A106820F0F80040EABF
:10203000C10010607047A049086070470246002048
:102040009A4B586820F47C1042EA01031843974BDE
:102050005860704798490866704701460020934AC7
:10206000506820F003000843506070478F48406874
:1020700000F00C007047014600208C4A506820F0A8
:10208000F00008435060704701460020874A5068BE
:1020900020F4E06008435060704701460020834A06
:1020A000506820F4605040EAC1005060704729B188
:1020B0007E4A527A02437D4B5A7204E07B4A527A3E
:1020C00082437A4B5A7270477B49D8310860704717
:1020D00001460020754A506820F440400843506093
:1020E00070470021714A20321170704A82F8201026
:1020F000012802D004280AD104E001216B4A2032D1
:10210000117005E00521694A2032117000E000BF1E
:1021100000BF70476949086070476449096A014314
:10212000624A11627047654944390860704730B5AA
:1021300000210022002400235C4D6D6805F00C0195
:1021400021B1042905D0082923D105E05C4D0560A3
:1021500022E05B4D05601FE0544D6D6805F4701280
:10216000524D6D6805F48034022505EB92421CB98E
:10217000544D554305600BE04C4D6D6805F400353A
:102180001DB1504D5543056002E04D4D554305606E
:1021900002E04B4D056000BF00BF444D6D6805F087
:1021A000F0010909484D6B5C0568DD4045603F4D15
:1021B0006D6805F4E061090A434D6B5C4568DD40DC
:1021C00085603A4D6D6805F46051C90A3E4D6B5CFF
:1021D0004568DD40C560354D6D6805F44041890BAB
:1021E0003A4D6B5CC568B5FBF3F5056130BD29B1AF
:1021F0002E4A526902432D4B5A6104E02B4A526920
:1022000082432A4B5A61704729B1284A9269024396
:10221000264B9A6104E0254A92698243234B9A61D6
:10222000704729B1214AD2690243204BDA6104E0A8
:102230001E4AD26982431D4BDA61704729B11B4A9D
:10224000D2680243194BDA6004E0184AD26882432C
:10225000164BDA60704729B1144A12690243134BD6
:102260001A6104E0114A12698243104B1A617047E7
:1022700012494039086070470F49C86470470B49DC
:10228000C87170470948406A40F080700749486249
:10229000704701460020054A92680A400AB10120B1
:1022A00000E000207047014988727047001002402A
:1022B0000000FFF8FFFFF6FE0000424280044242A9
:1022C00000127A0000093D008A0000209A000020D8
:1022D00010B50446FB48844209D101218803FFF769
:1022E000ADFF00214FF48040FFF7A8FF32E0F64831
:1022F000844209D101214804FFF7ADFF00214FF4CA
:102300000030FFF7A8FF25E0F048844209D1012101
:102310008804FFF7A0FF00214FF48020FFF79BFF08
:1023200018E0EB48844209D10121C804FFF793FF6C
:1023300000214FF40020FFF78EFF0BE0E5488442B8
:1023400008D101210805FFF786FF00214FF4801016
:10235000FFF781FF10BD2DE9F04786B005460E4618
:102360000024A24600BFA1460027B08900B100BFEB
:102370002F462C8A4CF6FF700440F08804432C82D0
:10238000AC894EF6F3100440B08831890843718956
:1023900008430443AC81AC8A4FF6FF400440B08947
:1023A0000443AC8201A8FFF7C2FEC648874202D1AF
:1023B000DDF810A001E0DDF80CA0A88900F40040D1
:1023C00040B10AEBCA0000EB0A1031684900B0FBCB
:1023D000F1F807E00AEBCA0000EB0A103168890047
:1023E000B0FBF1F86420B8FBF0F00401200964218F
:1023F00001FB1089A88900F4004040B1322000EBB5
:10240000C900B0FBF1F000F00700044308E03220FF
:1024100000EB09106421B0FBF1F000F00F00044361
:102420002C8106B0BDE8F0874FF416510160002101
:102430008180C18001810C2141810021818170470F
:1024400010B502460020108A4FF2FF0318400B8897
:102450004C8823438C882343CC8823431843108221
:1024600010BD0021018041808180C180704721B171
:10247000828942F40052828104E082894DF6FF7322
:102480001A4082817047F0B50346002400260025DB
:10249000002040F66A17B94200D100BF1846C1F3C8
:1024A000421401F01F06012707FA06F5012C01D19D
:1024B0000C3004E0022C01D1103000E014301AB1CD
:1024C00007682F43076002E00768AF430760F0BD6D
:1024D0001AB1838A0B43838202E0838A8B4383820F
:1024E0007047028A4FF6F0731A400282028A0A434A
:1024F0000282704782894FF2FF731A40828182897B
:102500000A438281704721B1828942F002028281AE
:1025100004E082894FF6FD731A4082817047028A77
:102520004FF6DF731A400282028A0A430282704722
:1025300021B1028A42F48042028204E0028A4BF610
:10254000FF731A4002827047C1F30802828070470D
:1025500001468888C0F308007047818941F0010175
:1025600081817047028BD2B20283028B42EA012240
:1025700002837047028B02F47F420283028B0A437C
:102580000283704721B1828A42F02002828204E0F5
:10259000828A4FF6DF731A408282704721B1828AA5
:1025A00042F01002828204E0828A4FF6EF731A40F2
:1025B0008282704721B1828A42F00802828204E05E
:1025C000828A4FF6F7731A408282704721B182895E
:1025D00042F40042828103E08289C2F30E028281CA
:1025E000704721B1828A42F40062828204E0828ACA
:1025F0004FF2FF731A4082827047828A4FF6FB7354
:102600001A408282828A0A438282704721B1828A7A
:1026100042F00202828204E0828A4FF6FD731A4081
:102620008282704702460020B1F5007F00D100BFD2
:1026300013880B400BB1012000E00020704701F42B
:102640000072B2F5007F00D100BFCA43028070471C
:1026500070B50246002400230025002040F66A16CB
:10266000B14200D100BFC1F3421501F01F030126A2
:1026700006FA03F3012D02D19689334006E0022DBC
:1026800002D1168A334001E0968A33400C120126AB
:1026900006FA04F41688344013B10CB1012000E0AE
:1026A000002070BD10B50022002340F66A14A1423C
:1026B00000D100BF0A1201249440A3B2DC4304807D
:1026C00010BD0000003801400044004000480040B8
:1026D000004C00400050004031490143314A116034
:1026E000704770B5002100230F22C47804B32D4C2D
:1026F000246804F4E064C4F5E064210AC1F1040331
:10270000CA40447804FA03F1847814402143090153
:10271000254C0678A155047804F01F050124AC402F
:1027200005786D11AD0005F1E025C5F8004109E01F
:10273000047804F01F050124AC401C4D0678761186
:1027400045F8264070BD1A4A0A400243154B1B1F2C
:102750001A60704739B1134A121D12680243114BB7
:102760001B1D1A6006E00F4A121D126882430D4BB2
:102770001B1D1A607047042808D14FF0E021096939
:1027800041F004014FF0E022116107E04FF0E02139
:10279000096921F004014FF0E02211617047000047
:1027A0000000FA050CED00E000E400E080E100E04C
:1027B00080FFFF1F10B50446FE48844208D1012166
:1027C000C014FFF73BFD0021E014FFF737FDC4E024
:1027D000B4F1804F08D101210846FFF73CFD0021EC
:1027E0000120FFF738FDB8E0F348844208D1012109
:1027F0000220FFF730FD00210220FFF72CFDACE0A6
:10280000EE48844208D101210420FFF724FD002175
:102810000420FFF720FDA0E0E948844208D101210F
:102820000820FFF718FD00210820FFF714FD94E0B1
:10283000E448844208D101211020FFF70CFD00215B
:102840001020FFF708FD88E0DF48844208D101210D
:102850002020FFF700FD00212020FFF7FCFC7CE09A
:10286000DA48844208D101214014FFF7E7FC002137
:102870006014FFF7E3FC70E0D548844209D10121E0
:10288000C804FFF7DBFC00214FF40020FFF7D6FC63
:1028900063E0D048844209D101210805FFF7CEFC4E
:1028A00000214FF48010FFF7C9FC56E0CA4884426B
:1028B00009D101214805FFF7C1FC00214FF40010A8
:1028C000FFF7BCFC49E0C548844208D10121402003
:1028D000FFF7C1FC00214020FFF7BDFC3DE0C048F0
:1028E000844208D101218020FFF7B5FC002180201F
:1028F000FFF7B1FC31E0BB48844208D101218015CB
:10290000FFF7A9FC0021A015FFF7A5FC25E0B648BC
:10291000844209D101210804FFF790FC00214FF403
:102920008030FFF78BFC18E0B048844209D10121C8
:102930004804FFF783FC00214FF40030FFF77EFCD2
:102940000BE0AB48844208D101218804FFF776FCF4
:1029500000214FF48020FFF771FC10BD0022028897
:10296000944B98420ED0994B98420BD0B0F1804FC7
:1029700008D0914B984205D0904B984202D0904B92
:10298000984204D14FF68F731A404B881A438D4BEF
:10299000984207D08C4B984204D04FF6FF431A4020
:1029A000CB881A4302808B8883850B880385814BF3
:1029B00098420BD0854B984208D08B4B984205D05B
:1029C0008A4B984202D08A4B984201D10B7A0386F7
:1029D00001238382704770B5002400220023058CF8
:1029E0004FF6FE7635400584028C8388048B4FF6C3
:1029F0008F752C40B51E2C400D882C43751E2A4027
:102A00000D892A434D882A436A4DA8420BD06F4D49
:102A1000A84208D0744DA84205D0744DA84202D0F7
:102A2000734DA84213D14FF6F7752A404D892A43BA
:102A30004FF6FB752A408D882A434FF6FF652B40E1
:102A40004FF6FF552B408D892B43CD892B43838037
:102A50000483CD888586028470BD70B50024002271
:102A60000023058C4FF6EF7635400584028C838871
:102A7000048B48F6FF752C404FF6FF452C400D881F
:102A80004FF6FF7606EA05252C434FF6DF752A4000
:102A90000D8906EA05152A434D8806EA05152A43DD
:102AA000444DA84202D0494DA8421DD14FF67F7532
:102AB0002A404D894FF6FF7606EA05152A434FF660
:102AC000BF752A408D8806EA05152A434FF6FF3563
:102AD0002B404FF2FF752B408D8906EA85052B436D
:102AE000CD8906EA85052B4383800483CD8805873D
:102AF000028470BD70B5002400220023058C4FF6BF
:102B0000FF6635400584028C8388848B4FF68F7571
:102B10002C404FF6FC752C400D882C434FF6FF558A
:102B20002A400D894FF6FF7606EA05252A434D888F
:102B300006EA05252A431F4DA84202D0234DA8428C
:102B40001DD14FF2FF752A404D894FF6FF7606EAF8
:102B500005252A434FF6FF352A408D8806EA0525CC
:102B60002A434EF6FF752B404DF6FF752B408D899D
:102B700006EA05152B43CD8906EA05152B4383800C
:102B80008483CD888587028470BD70B500220023C0
:102B90000024058C4EF6FF7635400584038C84882E
:102BA000828B48F6FF752A404FF6FF452A400D8874
:102BB00020E00000002C014000040040000800401C
:102BC000000C0040001000400014004000340140A0
:102BD000004C0140005001400054014000180040EA
:102BE000001C004000200040004001400044014023
:102BF000004801404FF6FF7606EA05252A434DF6C8
:102C0000FF752B400D8906EA05352B434D8806EAF2
:102C100005352B43FA4DA84202D0FA4DA84208D1FF
:102C20004BF6FF752C408D894FF6FF7606EA851529
:102C30002C4384808283CD88A0F84050038470BDEB
:102C4000828B4FF2FF331A408283828B4FF6FF73E1
:102C500003EA01231A4382837047F0B50C461546F8
:102C6000002200210026078C4EF6FF7C07EA0C07A5
:102C70000784828B018C4FF6FF7707EA043640F613
:102C8000FF473A404FF6FF7707EA05273A434FF6EA
:102C9000FF7707EA03373A43D94FB8420ED0D94FEE
:102CA000B8420BD0B0F1804F08D0D74FB84205D012
:102CB000D64FB84202D0D64FB84206D14DF6FF7774
:102CC000394046F48057394305E047F6FF5739400D
:102CD00044F48057394382830184F0BD828B4FF6E0
:102CE000F3731A408283828B0A4382837047F0B564
:102CF0000C461546002200210026078C4FF6FF6C7B
:102D000007EA0C070784828B018C4FF6FF7707EAEE
:102D100004264FF60C773A404FF6FF7707EA031781
:102D20002F433A43B64FB8420ED0B64FB8420BD0FD
:102D3000B0F1804F08D0B44FB84205D0B34FB8427D
:102D400002D0B34FB84206D14FF6FF57394046F490
:102D50008077394305E04FF2FF57394044F48077DC
:102D6000394382830184F0BD028B4FF2FF331A4056
:102D70000283028B4FF6FF7303EA01231A43028397
:102D80007047F0B50C461546002200210026078C3E
:102D90004FF6EF7C07EA0C070784028B018C4FF695
:102DA000FF7707EA041640F6FF473A404FF6FF77F1
:102DB00007EA03373A434FF6FF7707EA05273A4316
:102DC0008F4FB8420ED08F4FB8420BD0B0F1804F2A
:102DD00008D08D4FB84205D08C4FB84202D08C4FEE
:102DE000B84206D14FF6DF77394046F01007394335
:102DF00005E04FF65F77394044F01007394302830E
:102E00000184F0BD028B4FF6F3731A400283028BEC
:102E10000A4302837047F0B50C4615460022002194
:102E2000068C4FF6FE773E400684028B018C4FF6EF
:102E30000C7632407E1C06EA03162E433243704E57
:102E4000B0420ED06F4EB0420BD0B0F1804F08D0E0
:102E50006D4EB04205D06D4EB04202D06C4EB042C5
:102E600006D14FF6FD76314044F00106314305E0CE
:102E70004FF6F576314044F0010631430283018478
:102E8000F0BD70B505460C465D4885420ED05D48E4
:102E900085420BD0B5F1804F08D05B48854205D004
:102EA0005A48854202D05A48854200D100E000BF0E
:102EB000208850B92389A28861882846FFF7ABFF94
:102EC000E1882846FFF79EFF25E0208804280AD1E4
:102ED0002389A28861882846FFF753FFE1882846A6
:102EE000FFF742FF17E0208808280AD12389A2882B
:102EF00061882846FFF7FBFEE1882846FFF7EEFED3
:102F000009E02389A28861882846FFF7A6FEE188A8
:102F10002846FFF795FE70BD2DE9F04105460C46A9
:102F200000260127608808B9022600E00026A08854
:102F3000012801D1022700E001272088A0B92389B8
:102F4000A28861882846FFF766FFE1882846FFF7D8
:102F500059FF23893A4631462846FFF712FFE18898
:102F60002846FFF701FF13E02389A28861882846DD
:102F7000FFF707FFE1882846FFF7F6FE23893A4668
:102F800031462846FFF747FFE1882846FFF73AFF1A
:102F9000BDE8F0810A884B881A438B881A43CB8896
:102FA0001A430B891A434B891A438B891A43A0F899
:102FB000442070474FF6FF71818000210180C1805D
:102FC0004180017270470021018041808180C18071
:102FD000018141818181C18170470021018041804F
:102FE000012181800021C180018170470021018081
:102FF00041808180C18001814181818170470000D1
:10300000002C014000340140000400400008004052
:10301000000C004021B1028842F00102028004E06D
:1030200002884FF6FE731A400280704731B1B0F843
:10303000442042F40042A0F8442005E0B0F84420C7
:10304000C2F30E02A0F8442070471AB183890B43E3
:10305000838102E083898B4383817047818270473B
:1030600041EA0203A0F8483070471AB183890B4344
:10307000838102E083898B438381704701894FF606
:10308000F8721140018170470A46002101894FF60C
:103090008F73194011430181704730B504460D46C6
:1030A00029462046FFF7F0FF208940F007002081E5
:1030B00030BD2DE9F04104460D4616461F46602DF1
:1030C00006D13B46012231462046FFF75AFE05E075
:1030D0003B46012231462046FFF79DFE2946204609
:1030E000FFF7D2FF208940F007002081BDE8F08182
:1030F00030B50C4600210189C9B24FF6FF7505EACB
:103100000325154325432943018130BD2DE9F041B5
:1031100005460E4617469846002443463A46314631
:103120002846FFF7E5FF2C894FF6F870044044F07D
:1031300007044FF68F70044044F070042C81BDE802
:10314000F081F0B504460D4616461F463B46324612
:1031500029462046FFF7CCFF208940F4804020819B
:10316000F0BD0185828270470A46002101884FF632
:103170008F731940114301807047F0B50C46154616
:103180001E460021002200230189028B038C4FF68A
:10319000F877394021434FF6FC473A4040F2011797
:1031A0003A434FF6DD773B404FF6FF7707EA0617C5
:1031B0002F433B43018102830384F0BD0A46002173
:1031C000018B4FF68F7319401143018370470A46F4
:1031D0000021018B48F6FF7319404FF6FF7303EA95
:1031E00002231943018370470A460021818B4FF661
:1031F0008F7319401143818370470A460021818BE8
:1032000048F6FF7319404FF6FF7303EA0223194390
:103210008183704721B1028842F08002028004E07D
:1032200002884FF67F731A400280704721B182886E
:1032300042F00402828004E082884FF6FB731A4059
:103240008280704721B1828842F00802828004E0C7
:1032500082884FF6F7731A408280704721B18288C6
:1032600042F00102828004E082884FF6FE731A4029
:10327000828070470A460021018B4FF6F773194090
:103280001143018370470A460021018B4FF2FF73FF
:1032900019404FF6FF7303EA022319430183704775
:1032A0000A460021818B4FF6F77319401143818341
:1032B00070470A460021818B4FF2FF7319404FF689
:1032C000FF7303EA02231943818370470A460021F2
:1032D000018B4FF6FB7319401143018370470A4677
:1032E0000021018B4FF6FF3319404FF6FF7303EABD
:1032F00002231943018370470A460021818B4FF650
:10330000FB7319401143818370470A460021818B6A
:103310004FF6FF3319404FF6FF7303EA02231943B8
:10332000818370470A460021018B4FF67F73194055
:103330001143018370470A460021018BC1F30E013E
:103340004FF6FF7303EA02231943018370470A46CD
:103350000021818B4FF67F731940114381837047A1
:103360000A460021818BC1F30E014FF6FF7303EA79
:1033700002231943818370470A460021018C4FF6CE
:10338000FD7319401143018470470A460021018CE6
:103390004FF6F77319401143018470470A46002124
:1033A000018C4FF6DF7319404FF6FF7303EA0213E7
:1033B0001943018470470A460021018C4FF67F7340
:1033C00019404FF6FF7303EA021319430184704753
:1033D0000A460021018C4FF6FF5319404FF6FF7348
:1033E00003EA02231943018470470A460021018C35
:1033F0004FF2FF7319404FF6FF7303EA022319439C
:10340000018470470A460021018C4DF6FF73194074
:103410004FF6FF7303EA023319430184704730B556
:10342000002301248C40A3B2048C9C430484048CAC
:1034300002FA01F5ADB22C43048430BD30B500234F
:1034400004248C40A3B2048C9C430484048C02FAB0
:1034500001F5ADB22C43048430BD70B503460020A5
:1034600000241846183001258D40ACB21D8CA543B0
:103470001D8409B1082909D100EB6100056825F018
:10348000700505600568154305600EE00D1FC5F366
:103490004E052844056825F4E045056005684FF6AB
:1034A000FF7606EA02263543056070BD21B1028829
:1034B00042F00202028004E002884FF6FD731A40D7
:1034C0000280704721B1028842F00402028004E0C9
:1034D00002884FF6FB731A400280704721B1828840
:1034E00042F08002828004E082884FF67F731A40A7
:1034F0008280704702884FF6F7731A400280028874
:103500000A430280704782884FF68F731A40828088
:1035100082880A438280704702894FF6F8731A4006
:10352000028102890A430281704702894FF67F7344
:103530001A40028102890A430281704781847047E0
:103540008185704781867047018770478187704702
:10355000A0F84010704702884FF6FF431A400280DF
:1035600002880A43028070470146888E70470146F0
:10357000088F70470146888F70470146B1F84000B8
:1035800070470146888C70470146088D7047024697
:103590000020138A0B400BB1012000E0002070478F
:1035A000CA430282704730B502460020002300243F
:1035B000158A05EA0103958905EA010413B10CB1E6
:1035C000012000E0002030BDCA43028270470000A5
:1035D00070B505460C4600F0C7F9D02000F06EFA31
:1035E00000F0FFF918B100F0DDF9012070BD2846A8
:1035F00000F064FA00F0F5F9204600F05FFA00F000
:10360000F0F918B100F0CEF90120EFE700F0CAF9A7
:103610000020EBE770B504460025BC2C01DB01253A
:1036200010E0622C01DB02250CE02A2C01DB0325D3
:1036300008E0142C01DB042504E00A2C01DB05253D
:1036400000E0062529461A20FFF7C2FF70BD70B5BD
:103650000446B4F57A7F01DD4FF47A74042C00DA65
:1036600004244FF47A7090FBF4F0401EC5B2294652
:103670001920FFF7ADFF0546264604EBD671C1F3CE
:103680004F00FFF7C7FF70BD70B5044600F06CF93E
:10369000D02000F013FA00F0A4F9204600F00EFA52
:1036A00000F09FF900F060F9D12000F007FA00F077
:1036B00098F9002000F02BFA054600F073F928462F
:1036C00070BD10B50446E006010E1C20FFF780FF18
:1036D00010BD10B50446E006010E1B20FFF778FF71
:1036E00010BD10B500F02DF980216B20FFF770FFA1
:1036F0006420FEF742F900216B20FFF769FF0320E9
:10370000FFF7E7FF0020FFF7DCFF6420FFF79FFFD4
:1037100000213820FFF75CFF00216A20FFF758FFE7
:1037200000212320FFF754FF80213720FFF750FFAF
:103730007520FFF7A9FF0446682C0BD101216B20EF
:10374000FFF746FF00216C20FFF742FF6420FFF7E0
:103750007EFF01E0012010BD0020FCE72DE9F041D3
:1037600006460F4614461D4600F0FEF8002141EAC9
:103770004601C8B200F0A2F900F033F920B100F020
:1037800011F90120BDE8F081384600F097F900F00A
:1037900028F900F0E9F8012101EB4601C8B200F078
:1037A0008DF900F01EF90DE0012C04D1002000F08D
:1037B000AEF9287003E0012000F0A9F92870601E1E
:1037C000C4B26D1C002CEFD100F0ECF80020D9E75A
:1037D0002DE9F84F6B46022241216820FFF7BEFF1A
:1037E0009DF801009DF8001040EA01200FFA80FAD0
:1037F000504603F06DFC804600224B4B03F0EBFB80
:1038000006464A4A4A4B03F0CDFA044603F00EFD41
:1038100083464849584603F055FA044603F076FCBF
:1038200000B2BDE8F88F2DE9FC4104460D4616466E
:103830006B46062243216820FFF790FF0746BFB979
:103840009DF801009DF8001040EA012000B22080A0
:103850009DF803009DF8021040EA012000B2288084
:103860009DF805009DF8041040EA012000B2308068
:103870003846BDE8FC812DE9FC4104460D4616465C
:103880006B4606223B216820FFF768FF0746BFB959
:103890009DF801009DF8001040EA012000B2208050
:1038A0009DF803009DF8021040EA012000B2288034
:1038B0009DF805009DF8041040EA012000B2308018
:1038C0003846BDE8FC812DE9F04105460E46174615
:1038D000984600F049F8002141EA4501C8B200F0DD
:1038E000EDF800F07EF820B100F05CF80120BDE8B2
:1038F000F081304600F0E2F800F073F800240CE0AC
:1039000018F8040000F0DAF800F06BF818B100F0D5
:1039100049F80120EBE7601CC4B2BC42F0DB00F0C8
:1039200041F80020E3E7000000407540A4703D0A24
:10393000D74342400000C84210B50220FDF7F9FF0E
:1039400010BD08B501210820FEF75EFCC020ADF8CF
:10395000000010208DF8030003208DF80200694656
:103960008348FEF795F908BD10B58148006820F03E
:1039700070407F4908600846006840F04050086089
:1039800001207C4908607C49C1F89801FFF7D4FF09
:10399000002078490860FFF7CFFF00207649C1F882
:1039A000980110BD10B57248006820F07040704951
:1039B00008600846006840F04050086000206D49EB
:1039C000091F08606C49C1F89C01FFF7B5FF012091
:1039D0006849091F08606849C1F89C01FFF7ACFFFE
:1039E00010BD10B500246248006820F070406049A6
:1039F00008600846006840F00040086001205D490A
:103A00000860FFF799FF01205B49C1F89801FFF7B3
:103A100093FF07E0601CC4B2FA2C03DDFFF7C2FF7E
:103A2000012010BD5348803800680028F2D1514968
:103A3000091F086000BFF4E710B500204D49091FB9
:103A400008604B48006820F070404949086008460B
:103A5000006840F04050086000204749C1F89C01D0
:103A6000FFF76AFF01204349091F0860FFF764FF61
:103A700000204149C1F8980110BD10B500203D4912
:103A8000091F08603A48006820F070403849086013
:103A90000846006840F04050086001203649C1F8EF
:103AA0009C01FFF749FF01203249091F0860FFF719
:103AB00043FF00203049C1F8980110BD70B504469D
:103AC0002B48006820F070402949086008460068CB
:103AD00040F04050086000202649091F086000257A
:103AE00012E0E009234908606006040E0120224923
:103AF000C1F89801FFF720FF00201E49091F086048
:103B0000FFF71AFF681CC5B2082DEADB70BD70B55F
:103B1000054600241648006820F0704014490860EB
:103B20000846006840F000400860002615E00020CC
:103B30001049091F0860FFF7FFFE01200E49C1F878
:103B400098016006040E0B488038006808B1601CBC
:103B5000C4B2FFF7F1FE701CC6B2082EE7DB15B940
:103B6000FFF78BFF01E0FFF767FF204670BD000005
:103B7000000C01409C8121420080214238B504465E
:103B8000F74890F82400C0B114B10220009001E081
:103B900000200090F24A1268D17BF14A52681078F6
:103BA0006B460122FFF78FFE10B14FF0FF3038BD9A
:103BB0009DF80010EA48417423E0E948807A10B982
:103BC0004FF0FF30F3E724B1E548407C08B1002016
:103BD000EDE714B10120009001E000200090E04AE0
:103BE0001268D17BDE4A526810786B460122FFF7DB
:103BF0006AFE10B14FF0FF30D9E79DF80010D848A9
:103C000041740020D3E738B500241FE0D448006891
:103C1000C07AA04204D0D2480068407DA04200D1C2
:103C200012E0CF49496808786B4601222146FFF728
:103C300095FD10B14FF0FF3038BD9DF800202146B2
:103C4000C8A003F095FC00BF601CC4B2C448406823
:103C50000079A042DADC0020EEE770B504460D469C
:103C6000BF480068C07AA04204D0BD480068407DCB
:103C7000A04202D14FF0FF3070BDB94840680079D2
:103C8000A04202DC4FF0FF30F6E7B54949680878FA
:103C90002B4601222146FFF761FDEDE738B50446CA
:103CA000AF4890F82300A04201D1002038BD14B1E4
:103CB0003020009001E000200090A948807C20B1D5
:103CC0009DF8000040F002000090A54890F8220006
:103CD00020B19DF8000040F080000090A04A1268DA
:103CE000117D9F4A526810786B460122FFF7EBFD69
:103CF00010B14FF0FF30D9E7994880F823400020F9
:103D0000D4E738B5044604F0700010B101200090EB
:103D100005E014B10020009001E040200090904A9E
:103D20001268917C8E4A526810786B460122FFF728
:103D3000CAFD20B100218A488172481E38BD9DF815
:103D4000000020F04001864801730020009004F03C
:103D5000400020B99DF8000040F00400009004F0FD
:103D6000200020B99DF8000040F00200009004F00F
:103D7000100020B99DF8000040F00100009004F010
:103D8000080020B99DF8000040F038000090744A07
:103D90001268D17C724A526810786B460122FFF794
:103DA00092FD20B100216E488172481EC6E724B101
:103DB000082C02D00020FFF771FF694884720021AF
:103DC00001753220FDF7D9FD0020B7E738B504466C
:103DD0006348807CA04201D1002038BD002C46D031
:103DE0005F4A126811795E4A526810786B46012268
:103DF000FFF7B4FC10B14FF0FF30EEE79DF8000084
:103E000020F020000090564A12681179544A5268F6
:103E100010786B460122FFF756FD10B14FF0FF30CE
:103E2000DBE70320FDF7A9FD022000904C4890F845
:103E3000220020B19DF8000040F08000009048482A
:103E400090F8230020B19DF8000040F03000009071
:103E5000434A1268117D424A526810786B4601222B
:103E6000FFF731FD002851D04FF0FF30B5E73C4A55
:103E7000126811793A4A526810786B460122FFF7AE
:103E80006DFC10B14FF0FF30A7E73548807A00F0A5
:103E9000010028B19DF8000040F02000009004E0EF
:103EA0009DF8000020F0200000902D4A1268117942
:103EB0002B4A526810786B460122FFF704FD10B1BF
:103EC0004FF0FF3089E70320FDF757FD244890F8B5
:103ED000220010B18020009001E0002000902048D6
:103EE00090F8230020B19DF8000040F030000090D1
:103EF0001B4A1268117D1A4A526810786B460122DB
:103F0000FFF7E1FC10B14FF0FF3066E7144884740E
:103F1000002062E708B51248807A10B94FF0FF30F0
:103F200008BD002000900E4A1268D17B0C4A5268EE
:103F300010786B460122FFF7C6FC10B14FF0FF303E
:103F4000EEE7074A12685179054A526810786B46C5
:103F50000122FFF7B8FC68B14FF0FF30E0E7000046
:103F6000A0000020252335783A20252335780D0A36
:103F700000000000F84A12681179F74A5268107878
:103F80006B460122FFF79FFC10B14FF0FF30C7E7EF
:103F9000F14890F82400002853D00C200090EE4AFD
:103FA00012681179EC4A526810786B460122FFF7CB
:103FB0008AFC10B14FF0FF30B2E73220FDF7DDFC94
:103FC000C0200090E448807A00F0010020B19DF804
:103FD000000040F020000090DF4A12681179DE4AAC
:103FE000526810786B460122FFF76DFC10B14FF05C
:103FF000FF3095E7D848407C10B10220009001E0E6
:1040000000200090D44A1268D17BD34A52681078BD
:104010006B460122FFF757FC10B14FF0FF307FE7EE
:1040200000200090CC4A12685179CB4A526810782F
:104030006B460122FFF747FC002855D04FF0FF30B8
:104040006EE704200090C44A12681179C24A52688F
:1040500010786B460122FFF736FC10B14FF0FF30AD
:104060005EE7BD48807C20B9BB48807A00F0010043
:1040700010B94020009001E060200090B64A12681C
:104080001179B54A526810786B460122FFF71BFC84
:1040900010B14FF0FF3043E73220FDF76EFCAE4821
:1040A000407C10B10120009001E000200090AA4A5D
:1040B0001268D17BA84A526810786B460122FFF73C
:1040C00002FC10B14FF0FF302AE7A34A1268517981
:1040D000A14A52681078A04B10330122FFF7F3FB7E
:1040E00010B14FF0FF301BE7002019E770B5044610
:1040F000002624F00104984890F8240008B100201C
:1041000070BD9548807A10B94FF0FF30F8E79248BB
:10411000057C807A2040904908740846007CA042C3
:1041200002D04FF0FF3600E0002614B98A48007D27
:1041300018B10120FFF722FD02E00020FFF71EFD6D
:104140003CB1FFF7E7FE20B1834805744FF0FF3024
:10415000D6E73046D4E738B504467F48807A10B9B0
:104160004FF0FF3038BDBC2C02DB0120009015E081
:10417000622C02DB0220009010E02A2C02DB0320DC
:1041800000900BE0142C02DB0420009006E00A2CC7
:1041900002DB0520009001E0062000906E48C07A06
:1041A0009DF80010884201D10020DBE76A4A1268BE
:1041B0009178694A526810786B460122FFF783FBB9
:1041C00010B14FF0FF30CDE79DF800106248C1728A
:1041D0000020C7E738B50446282C02DD4FF0FF3039
:1041E00038BDDCB90020FFF759FD00208DF8000034
:1041F00007208DF80100584A1268917C564A52688F
:1042000010786B460222FFF75EFB10B14FF0FF30D3
:10421000E6E70021504801750020E1E70120FFF7A3
:104220003DFD20208DF80000012C06D100208DF8E6
:1042300001000520FFF78FFF17E0052C06DC0120A9
:104240008DF801000520FFF786FF0EE0142C06DC38
:1042500002208DF801000A20FFF77DFF05E0032012
:104260008DF801001420FFF776FF9DF8010007216B
:1042700001EB8010C0B28DF80100374A1268917CC2
:10428000354A526810786B460222FFF71CFB10B1CA
:104290004FF0FF30A4E708212F48817200210173FD
:1042A000012101750020FFF721FF002098E738B5B4
:1042B00004462948807A10B94FF0FF3038BD2648AF
:1042C00090F8240010B14FF0FF30F7E72248007D4E
:1042D00050B134B1282C04DCE0B2FFF77BFF0020A2
:1042E000ECE70020FFF776FF042C01DA042404E059
:1042F000B4F57A7F01DD4FF47A744FF47A7090FB55
:10430000F4F0401EC0B20090134A12685178124A6D
:10431000526810786B460122FFF7D5FA10B14FF0C2
:10432000FF30CBE79DF80000401C4FF47A7191FB01
:10433000F0F081B20848C1810146C9894810FFF7F1
:104340000AFF0020BAE738B504460348807A28B946
:104350004FF0FF3038BD0000A0000020022C06D036
:10436000042C07D0082C08D0102C0CD108E0002019
:1043700000900BE00820009008E01020009005E07D
:104380001820009002E04FF0FF30E3E700BFF9484B
:10439000407A9DF80010B0EBE10F01D10020D9E781
:1043A000F44A1268D179F34A526810786B460122B8
:1043B000FFF789FA10B14FF0FF30CBE79DF800000E
:1043C000C110EC4841720020C4E738B50446E94802
:1043D000807A10B94FF0FF3038BDFA2C09D0B4F50F
:1043E000FA7F09D0B4F57A7F09D0B4F5FA6F0CD111
:1043F00008E0002000900BE00820009008E010206A
:10440000009005E01820009002E04FF0FF30E3E755
:1044100000BFD848007A9DF80010B0EBE10F01D141
:104420000020D9E7D34A12689179D24A52681078AD
:104430006B460122FFF747FA10B14FF0FF30CBE790
:104440009DF80000C010CB4908720020C4E71CB5DD
:1044500080208DF80000C74A1268917CC54A5268D6
:1044600010786B460122FFF72EFA10B14FF0FF30A3
:104470001CBD6420FDF781FA00208DF80000BD4AC4
:104480001268917CBB4A526810786B460122FFF794
:104490001AFA10B14FF0FF30EAE7B64A1268917D80
:1044A000B44A526810786B460622FFF757F910B1EC
:1044B0004FF0FF30DCE79DF80500C007400F9DF886
:1044C000031001F0010140EA41009DF8011001F0E4
:1044D000010140EA010494B1012C03D10121A54856
:1044E000C17431E0022C03D10021A248C1742BE039
:1044F0002146A1A003F03CF84FF0FF30B8E79D4AF9
:104500001268D1789B4A526810786B460122FFF7F7
:1045100025F910B14FF0FF30AAE79DF8000000F038
:104520000F042CB99E4803F023F84FF0FF309FE7AB
:10453000042C06D19BA003F01BF801218D48C17407
:1045400002E000218B48C174FF218A488172FF205C
:1045500088490872FF2187484172C1724FF6FF7186
:10456000C181FF21017481740121017380F822103F
:10457000002180F8231041750175163001604160FB
:104580008160163880F8241080F82510C1844FF41B
:10459000FA60FFF71AFF10B14FF0FF3068E7022012
:1045A000FFF7D1FE10B14FF0FF3061E72A20FFF78F
:1045B000D2FD10B14FF0FF305AE73220FFF777FEFF
:1045C00010B14FF0FF3053E70020FFF78FFD10B11F
:1045D0004FF0FF304CE70020FFF7F8FB10B14FF031
:1045E000FF3045E70020FFF78CFB002040E77047D5
:1045F0007CB504460D465F48807A00F0700010B923
:104600004FF0FF307CBD5B4A1268117B594A5268FB
:1046100010786B460622FFF7A1F810B14FF0FF307B
:10462000F0E79DF801009DF8001040EA012000B27B
:1046300020809DF803009DF8021040EA012000B29E
:1046400060809DF805009DF8041040EA012000B24A
:10465000A08015B12846FFF7CAFF0020D2E77CB53D
:1046600004460D464348807A00F0080010B94FF028
:10467000FF307CBD3F4A1268517B3E4A5268107839
:104680006B460622FFF76AF810B14FF0FF30F0E7F3
:104690009DF801009DF8001040EA012000B2208042
:1046A0009DF803009DF8021040EA012000B26080EE
:1046B0009DF805009DF8041040EA012000B2A0809A
:1046C00015B12846FFF793FF0020D2E72DE9FE4FF2
:1046D00005460C462748807A18B94FF0FF30BDE8F0
:1046E000FE8F244A1268917B224A5268107802ABEE
:1046F0000222FFF733F810B14FF0FF30EFE79DF8DB
:1047000009009DF8081040EA012006B214B12046C5
:10471000FFF76DFF17494968C88802F0D4FC1549B6
:1047200001904968B1F9080002F0C4FC83463046A4
:1047300002F0C0FC5946009002F0BEFA8246019990
:1047400002F0F2FA81461F4902F064FA80464FF007
:104750008F4102F0B7FA074602F0D8FC286000202B
:10476000BDE710B588B004461CB94FF0FF3008B063
:1047700010BD29E0A0000020556E737570706F7237
:1047800074656420736F6674776172652070726FF0
:1047900064756374207265762025642E0A0000001B
:1047A000D896000848616C662073656E73697469F9
:1047B00076697479207061727420666F756E642EEC
:1047C0000A00000000000C42206830B9606820B97F
:1047D000A06810B9002008B010BDFA4949680878EF
:1047E00006AB03221146FEF7B9FF10B14FF0FF30C0
:1047F000F1E79DF81800082101EB201000F00F00F0
:10480000ADF800009DF8190001EB201000F00F003A
:10481000ADF802009DF81A0001EB201000F00F0027
:10482000ADF8040020684100BDF90000403091FB64
:10483000F0F000B2ADF8100060684100BDF9020070
:10484000403091FBF0F000B2ADF81200A0684100DA
:10485000BDF90400403091FBF0F000B2ADF8140057
:10486000D8494968087806AB06221146FEF776FF5C
:1048700010B14FF0FF30AEE79DF819009DF8181009
:1048800040EA012000B2ADF808009DF81B009DF839
:104890001A1040EA012000B2ADF80A009DF81D0090
:1048A0009DF81C1040EA012000B2ADF80C00BDF8E4
:1048B0001000BDF80810084400B2ADF81000BDF8B3
:1048C0001200BDF80A10084400B2ADF81200BDF89D
:1048D0001400BDF80C10084400B2ADF81400BDF887
:1048E0001000000A8DF81800BDF81000C0B28DF855
:1048F0001900BDF81200000A8DF81A00BDF8120068
:10490000C0B28DF81B00BDF81400000A8DF81C0021
:10491000BDF81400C0B28DF81D00AA494968087896
:1049200006AB06221146FEF7CEFF10B14FF0FF3066
:1049300051E700204FE70146A248007A30B1012834
:1049400007D0022809D003280FD10AE0FA200880F6
:104950000EE04FF4FA7008800AE04FF47A70088095
:1049600006E04FF4FA60088002E00020088000BFF3
:1049700000BF0020704701469248407A30B10128BC
:1049800007D0022808D003280CD108E002200870C4
:104990000BE00420087008E00820087005E01020F3
:1049A000087002E04FF0FF30704700BF8548C07CC0
:1049B00018B108784006000E08700020F4E70146A0
:1049C0008048C07A082817D2DFE800F01704070AE9
:1049D0000D101318BC20088013E06220088010E03E
:1049E0002A2008800DE0142008800AE00A200880B0
:1049F00007E00520088004E000BF00BF0020088019
:104A000000BF00BF0020704701466E4890F82400A8
:104A100010B14FF0FF3070476A48C089088000200D
:104A2000F9E7014600200880401E704701464FF01C
:104A3000FF30704701466348007A30B1012807D043
:104A4000022808D003280CD108E05F4808600BE07A
:104A50005E48086008E05E48086005E05D48086060
:104A600002E04FF0FF30704700BF0020FBE7014637
:104A70005448407A30B1012808D002280AD00328CF
:104A800010D10BE04FF4804008800EE041F69C709E
:104A900008800AE04FF48050088006E04FF4006080
:104AA000088002E04FF0FF30704700BF4548C07CEF
:104AB00010B10888401008800020F5E70146414801
:104AC000007C08700020704701463E48807A10B193
:104AD0000120087001E0002008700020704738B500
:104AE00004463848807A10B94FF0FF3038BD354A57
:104AF0001268117C334A526810786B460222FEF726
:104B00002DFE10B14FF0FF30F0E79DF801009DF849
:104B1000001040EA012000B220800020E6E72DE9E5
:104B2000FE4F0746884692461D46DDF830B0002607
:104B30000024244890F8240010B1601EBDE8FE8FC8
:104B4000002028701F48807A10B94FF0FF30F5E739
:104B50001C48007C10B94FF0FF30EFE71948007C8B
:104B600000F0400008B1B01CC6B21648007C00F04E
:104B7000200008B1B01CC6B21248007C00F0100042
:104B800008B1B01CC6B20F48007C00F0080008B1A4
:104B9000B01DC6B20B4A1268917A0A4A5268107860
:104BA0006B460222FEF7DAFD10B14FF0FF30C5E789
:104BB0009DF801009DF8001040EA0129B1450BDA8B
:104BC0000020BBE7A0000020000003430000834258
:104BD0003333034233338341FC4840684088B9EBA8
:104BE000600F17DDF94A1268517CF84A5268107854
:104BF0006B460122FEF7B2FD10B14FF0FF309DE78A
:104C00009DF8000000F0100020B1FFF783F96FF06D
:104C1000010093E75046FFF7EAFCEC4A1268D17AAC
:104C2000EA4A526810786B463246FEF797FD10B19B
:104C30004FF0FF3082E799FBF6F0401E8BF8000042
:104C400000202870B4422AD0E048007C00F0080020
:104C500028B3601C1DF800001DF8041040EA012074
:104C600000B2A8F80000E01C1DF80010A01C1DF800
:104C7000000041EA002000B2A8F80200601D1DF803
:104C80000010201D1DF8000041EA002000B2A8F825
:104C90000400287840F008002870A01D84B2B442B7
:104CA00013D0CA48007C00F0400070B1601C1DF8B1
:104CB00000001DF8041040EA012000B23880287876
:104CC00040F040002870A01C84B2B44213D0BF480A
:104CD000007C00F0200070B1601C1DF800001DF881
:104CE000041040EA012000B27880287840F02000CB
:104CF0002870A01C84B2B44213D0B448007C00F0E9
:104D0000100070B1601C1DF800001DF8041040EA8E
:104D1000012000B2B880287840F010002870A01C54
:104D200084B200200AE7F8B504460F461646A748A5
:104D300090F8240010B94FF0FF30F8BDA348807AF6
:104D400010B94FF0FF30F8E7A04A1268917A9F4AF5
:104D5000526810786B460222FEF700FD10B14FF04A
:104D6000FF30EAE79DF801009DF8001040EA0125B8
:104D7000A54203DA00203070401EDEE79348406809
:104D80004088B5EB600F17DD904A1268517C8F4A5E
:104D9000526810786B460122FEF7E0FC10B14FF02C
:104DA000FF30CAE79DF8000000F0100020B1FFF7C7
:104DB000B1F86FF00100C0E7E2B2844B1B68D97A0A
:104DC000824B5B6818783B46FEF7C8FC10B14FF089
:104DD000FF30B2E795FBF4F0401E30700020ACE7E6
:104DE00001467A4880F82210002070477CB50546BD
:104DF00076494968087801AB04220D21FEF7AEFC24
:104E000008B107207CBD9DF80700C0F301109DF894
:104E1000041001F0E00140EAE1008DF800009DF887
:104E20000700C0F381009DF8051001F0E00140EAA1
:104E3000E1008DF801009DF8070000F003009DF8E7
:104E4000061001F0E00140EAE1008DF802000024C4
:104E50001CE01DF8040018B9002045F8240013E0F8
:104E60005B4845F8240006E055F82400594901F054
:104E700029FF45F824001DF80400401EC0B20DF8BB
:104E800004000028F0D100BF601CC4B2032CE0DB9A
:104E90000020B7E72DE9FE4F06460F46002568467D
:104EA000FFF7A4FF002442E056F8240057F824102E
:104EB000A0EB010ABAF1000F01DB514601E0CAF193
:104EC0000001084602F0F6F883464FF08F4101F0EA
:104ED0002BFF80465DF82400002102F0C3F916D0B4
:104EE0005DF82410404601F01FFF82464FF07E51CE
:104EF00001F0E2FE814629F0004A3748416A5046F7
:104F000002F0BAF912D20120A04005430EE0324867
:104F1000C169404602F0A6F905D32F48016A404610
:104F200002F0AAF902D20120A0400543641C032C20
:104F3000BADB2846BDE8FE8F2DE9FC5F06460F462A
:104F4000002522494968087801AB03220D21FEF7AC
:104F500005FC10B10720BDE8FC9F9DF8040000F09F
:104F60001F008DF804009DF8050000F01F008DF86B
:104F700005009DF8060000F01F008DF806000024D3
:104F800062E056F8240057F82410A0EB010BBBF1A7
:104F9000000F01DB594601E0CBF10001084602F0A9
:104FA00089F84FF08F41009001F0BEFE814601A8C4
:104FB000005DC0B30849086802F085F88346594689
:104FC000064801F0B1FE80460FE00000A00000207E
:104FD0007B14AE3E1D5A843FC489000800B04C4586
:104FE000FE49404601F06EFE804601A8005D401E6D
:104FF000C0B201A908550028F2D14146484601F047
:1050000093FE83464FF07E5101F056FE82462AF011
:10501000004BF3488169584602F02EF913D2012063
:10502000A04005430FE0FFE7ED480169484602F064
:1050300019F905D3EA484169484602F01DF902D240
:105040000120A0400543641C032C9ADB284682E71C
:105050002DE9F04F87B005460C46914601208DF8AA
:10506000100000208DF81100DE4A1268917CDD4AA4
:105070005268107804AB0222FEF725FC20B14FF0F5
:10508000FF3007B0BDE8F08FC820FCF776FC0020A9
:105090008DF81000D34A1268D17BD24A526810783A
:1050A00004AB0122FEF70FFC10B14FF0FF30E8E730
:1050B000CC4A12685179CB4A5268107804AB01226D
:1050C000FEF701FC10B14FF0FF30DAE7C54A126875
:1050D000917CC44A5268107804AB0122FEF7F3FBBE
:1050E00010B14FF0FF30CCE7BE4A1268D17DBD4A07
:1050F0005268107804AB0122FEF7E5FB10B14FF0C7
:10510000FF30BEE7B74A12681179B64A5268107884
:1051100004AB0122FEF7D7FB10B14FF0FF30B0E730
:105120000C208DF81000AF4A12681179AD4A526810
:10513000107804AB0122FEF7C6FB10B14FF0FF3030
:105140009FE70F20FCF719FCA648806A407A8DF88B
:105150001000A44A12689178A24A5268107804ABF1
:105160000122FEF7B0FB10B14FF0FF3089E79D48F8
:10517000806A007A8DF810009A4A12685178994A2C
:105180005268107804AB0122FEF79DFB10B14FF07E
:10519000FF3076E7B9F1000F07D09248806A807A35
:1051A00040F0E0008DF8100004E08E48806A807ABC
:1051B0008DF810008B4A126891798A4A52681078EB
:1051C00004AB0122FEF77FFB10B14FF0FF3058E730
:1051D000B9F1000F07D08348806AC07A40F0E00040
:1051E0008DF8100003E07E48C07A8DF810007D4AEB
:1051F0001268D1797B4A5268107804AB0122FEF71D
:1052000062FB10B14FF0FF303BE7B9F1000F02D065
:10521000C820FCF7B2FB40208DF81000714A1268DC
:105220001179704A5268107804AB0122FEF74BFBEB
:1052300010B14FF0FF3024E778208DF81000694A54
:1052400012685179674A5268107804AB0122FEF760
:105250003AFB10B14FF0FF3013E761498889FCF742
:105260008CFB00208DF810005E4A126851795D4A6F
:105270005268107804AB0122FEF725FB10B14FF005
:10528000FF30FEE6574A1268917A564A5268107803
:1052900004AB0222FEF762FA10B14FF0FF30F0E6E5
:1052A0009DF811009DF8101040EA012B0C209BFB8B
:1052B000F0F0C6B20020A86068602860A06060605E
:1052C0002060824665E0474A1268D17A454A5268B2
:1052D000107804AB0C22FEF741FA10B14FF0FF300A
:1052E000CFE69DF811009DF8101040EA012000B2B1
:1052F000ADF808009DF813009DF8121040EA012057
:1053000000B2ADF80A009DF815009DF8141040EAAF
:10531000012000B2ADF80C00BDF908102068084467
:105320002060BDF90A10606808446060BDF90C1087
:10533000A0680844A0609DF817009DF8161040EA88
:10534000012000B2ADF800009DF819009DF818107A
:1053500040EA012000B2ADF802009DF81B009DF864
:105360001A1040EA012000B2ADF80400BDF90010A7
:10537000286808442860BDF902106868084468601D
:10538000BDF90410A8680844A8600AF1010000F003
:10539000FF0AB24597DB1248D0F800C02868C11751
:1053A000090441EA1041070462460023384601F02F
:1053B000E1FB32460023CDE9020101F0DBFB28606E
:1053C0000748D0F800C06868C117090441EA1041D5
:1053D000070462460023384606E0000054E3853F98
:1053E000C4890008A000002001F0C4FB324600235D
:1053F000CDE9020101F0BEFB6860FE48D0F800C0B4
:10540000A868C117090441EA104107046246002355
:10541000384601F0AFFB32460023CDE9020101F02E
:10542000A9FBA860F348D0F804C02068C11709049C
:1054300041EA1041070462460023384601F09AFB16
:1054400032460023CDE9020101F094FB2060E948D7
:10545000D0F804C06068C117090441EA104107048C
:1054600062460023384601F085FB32460023CDE931
:10547000020101F07FFB6060DE48D0F804C0A06844
:10548000C117090441EA1041070462460023384667
:1054900001F070FB32460023CDE9020101F06AFB06
:1054A000A060A068002804DDA068A0F58030A0609E
:1054B00003E0A06800F58030A0600020E1E538B589
:1054C0000446CD4890F82400A04201D1002038BD08
:1054D00024B3C94890F8250010B94FF0FF30F6E723
:1054E0000020FEF74BFB0020FEF770FCC249C88C81
:1054F000FEF7DDFE00200090BF49496808786B4642
:1055000001222321FEF7DFF90121BB4880F8241096
:105510000120FEF733FBFEF7FDFC13E00020FEF751
:105520002DFBB548007C0090B349496808786B466C
:1055300001222321FEF7C7F90021AF4880F824108B
:10554000FEF7E8FC0020C2E72DE9F04F8DB083465E
:105550000F4602200C90A84890F8240020B10020AB
:10556000FFF7ADFF012600E0002603A8FFF7E3F9EF
:1055700005A8FFF700FA01A8FFF721FA02A8FFF734
:1055800043FA9D4890F80AA004A8FFF797FA002470
:1055900007E0002239465846FFF75AFD00B902E0FD
:1055A000641C022CF5DB00BF022C01D1002528E091
:1055B000002407E0012206A909A8FFF749FD00B968
:1055C00002E0641C022CF5DB00BF022C01D1002597
:1055D00017E006A93846FFF75DFC00F0FF0809A9AF
:1055E0005846FFF7A9FC00F0FF090025B9F1000FAC
:1055F00001D145F00105B8F1000F01D145F00205D8
:1056000000BFFF207C490872FF217B484172C172B4
:105610004FF6FF71C181FF21817201740121017375
:10562000BDF80C00FEF7D1FE9DF81400FEF78BFECE
:10563000BDF80400FEF78FFDBDF80800FEF737FE49
:105640005046FEF75EFB9DF81000FEF74FFD16B1C9
:105650000120FFF734FF28460DB0BDE8F08FF8B504
:1056600004460D46164616B94FF0FF30F8BD6248A5
:10567000807A10B94FF0FF30F8E720128DF8000063
:10568000E0B28DF801009DF8010028445A494968AC
:105690004989884202DD4FF0FF30E7E7564A126839
:1056A000117E554A526810786B460222FEF70BF9BC
:1056B00010B14FF0FF30D9E7EAB24F4B1B68597D6C
:1056C0004D4B5B6818783346FEF7FDF810B14FF08C
:1056D000FF30CBE70020C9E7F8B504460D46164673
:1056E00016B94FF0FF30F8BD4348807A10B94FF03B
:1056F000FF30F8E720128DF80000E0B28DF80100CD
:105700009DF8010028443C4949684989884202DDE6
:105710004FF0FF30E7E7384A1268117E364A526888
:1057200010786B460222FEF7CEF810B14FF0FF3032
:10573000D9E7EAB2304B1B68597D2F4B5B6818786C
:105740003346FEF70BF810B14FF0FF30CBE70020E7
:10575000C9E72DE9F04385B005460E4690469946C7
:10576000254890F8250020B14FF0FF3005B0BDE886
:10577000F08316B94FF0FF30F8E7002423E0281B30
:10578000102801DD102000E0281B87B232193946AD
:105790002046FFF764FF10B14FF0FF30E6E701AAA3
:1057A00039462046FFF798FF10B14FF0FF30DDE794
:1057B00030193A4601A901F020FA10B16FF001004A
:1057C000D4E7E01984B2AC42D9DB4FEA28208DF847
:1057D000000008F0FF008DF80100074A1268917E72
:1057E000054A526810786B460222FEF76CF840B109
:1057F00004E00000C4890008A00000204FF0FF3042
:10580000B4E70121FE4880F82510A0F8269000207A
:10581000ACE70146FA4890F8240008700020704771
:105820004FF0FF30704702464FF0FF30704701469F
:105830004FF0FF307047F8B505460F461446002C70
:1058400070D0B5F5FF5F01DDFF2605E0202D01DA00
:10585000012601E0C5F3471607B90127282C02DD10
:105860004FF0FF30F8BDE648407D28BBE44890F893
:10587000240038B10020FFF722FE0121E04880F823
:10588000201003E00021DE4880F82010DC481630AC
:10589000FFF751F8DA481830FFF76DF8D8481A309A
:1058A000FFF78DF8D6481C30FFF7AEF8D448817A60
:1058B00081771F30FFF702F90020FEF75FF9002023
:1058C000FEF788FC00208DF80000CD4A1268917820
:1058D000CB4A526810786B460122FDF7F4FF10B1F5
:1058E0004FF0FF30BEE740208DF80000C44A126838
:1058F000D17BC34A526810786B460122FDF7E3FF63
:1059000000B165E08DF800608DF80170BC4A126846
:10591000117ABB4A526810786B460222FDF7D3FF1A
:1059200008B155E047E00520FCF727F8B448407A75
:10593000072101EBC000C0B28DF80000B04A126828
:10594000D179AF4A526810786B460122FDF7BBFF50
:1059500000B13DE020208DF80000012C03D1002093
:105960008DF801000EE0052C03DC01208DF801000C
:1059700008E0142C03DC02208DF8010002E0032073
:105980008DF801009DF80100072101EB8010C0B2E5
:105990008DF801009A4A1268917C994A52681078F1
:1059A0006B460222FDF78FFF00B111E00121944800
:1059B0004175002056E7924A1632002103E0505C00
:1059C00000B105E0491C0C29F9D34FF0FF3049E73D
:1059D000FF208B490872FF2189484172C1724FF63E
:1059E000FF71C181FF2181720174012101730146A0
:1059F000887FFEF786F98249C88AFEF7E6FC80496F
:105A0000087EFEF7A0FC7E49488BFEF7A4FB7C498C
:105A1000888BFEF74CFC7A49C87FFEF767FB784815
:105A200090F8200010B10120FFF749FD00217448D3
:105A30004175002016E770B588B002A905A8FFF7E8
:105A400083FD0446072C3ED101A8FEF7F3FF05981D
:105A500001F030FB0646019901F034F9054601F0EA
:105A600055FB0590069801F025FB0646019901F0CB
:105A700029F9054601F04AFB0690079801F01AFB48
:105A80000646019901F01EF9054601F03FFB07901B
:105A900005A800F052FA6846FEF7E9FFBDF80010CD
:105AA000029848430290BDF80010039848430390C1
:105AB000BDF8001004984843049002A800F0D0FA02
:105AC000002008B070BD0120FBE7014691F90020DD
:105AD000002A01DD00201EE091F90020002A01DAF1
